{
  "contractName": "HoneyPot",
  "abi": [
    {
      "constant": true,
      "inputs": [
        {
          "name": "",
          "type": "address"
        }
      ],
      "name": "balances",
      "outputs": [
        {
          "name": "",
          "type": "uint256"
        }
      ],
      "payable": false,
      "stateMutability": "view",
      "type": "function"
    },
    {
      "inputs": [],
      "payable": true,
      "stateMutability": "payable",
      "type": "constructor"
    },
    {
      "payable": false,
      "stateMutability": "nonpayable",
      "type": "fallback"
    },
    {
      "anonymous": false,
      "inputs": [
        {
          "indexed": true,
          "name": "who",
          "type": "address"
        },
        {
          "indexed": false,
          "name": "howMuch",
          "type": "uint256"
        }
      ],
      "name": "LogPut",
      "type": "event"
    },
    {
      "anonymous": false,
      "inputs": [
        {
          "indexed": true,
          "name": "who",
          "type": "address"
        },
        {
          "indexed": false,
          "name": "howMuch",
          "type": "uint256"
        }
      ],
      "name": "LogGot",
      "type": "event"
    },
    {
      "constant": false,
      "inputs": [],
      "name": "put",
      "outputs": [],
      "payable": true,
      "stateMutability": "payable",
      "type": "function"
    },
    {
      "constant": false,
      "inputs": [],
      "name": "get",
      "outputs": [],
      "payable": false,
      "stateMutability": "nonpayable",
      "type": "function"
    }
  ],
  "bytecode": "0x608060405261001b610020640100000000026401000000009004565b6100b3565b3373ffffffffffffffffffffffffffffffffffffffff167fe26f3422d061abd0fa4be85ce2b578b6ee8c617ec288974dd82abfcb7c94368e346040518082815260200191505060405180910390a2346000803373ffffffffffffffffffffffffffffffffffffffff1673ffffffffffffffffffffffffffffffffffffffff16815260200190815260200160002081905550565b6102ff806100c26000396000f300608060405260043610610057576000357c0100000000000000000000000000000000000000000000000000000000900463ffffffff16806327e235e314610069578063549262ba146100c05780636d4ce63c146100ca575b34801561006357600080fd5b50600080fd5b34801561007557600080fd5b506100aa600480360381019080803573ffffffffffffffffffffffffffffffffffffffff1690602001909291905050506100e1565b6040518082815260200191505060405180910390f35b6100c86100f9565b005b3480156100d657600080fd5b506100df61018c565b005b60006020528060005260406000206000915090505481565b3373ffffffffffffffffffffffffffffffffffffffff167fe26f3422d061abd0fa4be85ce2b578b6ee8c617ec288974dd82abfcb7c94368e346040518082815260200191505060405180910390a2346000803373ffffffffffffffffffffffffffffffffffffffff1673ffffffffffffffffffffffffffffffffffffffff16815260200190815260200160002081905550565b3373ffffffffffffffffffffffffffffffffffffffff167fc9fcb9d417f1fd1c3939628036aa5b146dda3ed02065fc550c9facb1a7354c906000803373ffffffffffffffffffffffffffffffffffffffff1673ffffffffffffffffffffffffffffffffffffffff168152602001908152602001600020546040518082815260200191505060405180910390a23373ffffffffffffffffffffffffffffffffffffffff166000803373ffffffffffffffffffffffffffffffffffffffff1673ffffffffffffffffffffffffffffffffffffffff1681526020019081526020016000205460405160006040518083038185875af192505050151561028d57600080fd5b60008060003373ffffffffffffffffffffffffffffffffffffffff1673ffffffffffffffffffffffffffffffffffffffff168152602001908152602001600020819055505600a165627a7a723058206b3010b7f4ac80a12a250d1b179671a7edcdef4a221e2d204ca6852c36fc63030029",
  "source": "pragma solidity 0.4.24;\n\ncontract HoneyPot {\n    mapping (address => uint) public balances;\n\n    event LogPut(address indexed who, uint howMuch);\n    event LogGot(address indexed who, uint howMuch);\n\n    constructor() payable public {\n        put();\n    }\n\n    function put() payable public {\n        emit LogPut(msg.sender, msg.value);\n        balances[msg.sender] =+ msg.value;\n    }\n\n    function get() public {\n        emit LogGot(msg.sender, balances[msg.sender]);\n        require(msg.sender.call.value(balances[msg.sender])());\n        balances[msg.sender] = 0;\n    }\n\n    function() private {\n        revert();\n    }\n}",
  "sourcePath": "/home/ankush/dapps/sol/challenge/contracts/HoneyPot.sol",
  "compiler": {
    "name": "solc",
    "version": "0.4.24+commit.e67f0147.Emscripten.clang"
  },
  "schemaVersion": "2.0.1",
  "updatedAt": "2018-11-08T10:08:41.017Z"
}